:020000040000FA
:10000000000087312D2FFF348A012000911C4228E7
:1000100022000D082000BE003E35BF003F08031D32
:1000200013281030BF0021008E0122008D01200016
:100030003F08103A031929283F08203A03192E28AF
:100040003F08403A031933283F08803A03193828FB
:100050003C282100490822008E003C2821004A0843
:1000600022008E003C2821004B0822008E003C28F4
:1000700021004C0822008E0020003F0822008D0045
:100080002000911009002000C001C101C201803090
:10009000C30080316A30210099000E308C002200AC
:1000A0008C0121008D0122008D0121008E01043080
:1000B00023008C0021001E169E1723008E010530A0
:1000C00020009C00FA309B0021009114723028001F
:1000D00097007F308F316C2780312000A600770891
:1000E000A800A700270C0318772828001711031C65
:1000F0007B2828001715FA302800960037309E001C
:10010000FA309D0064308F316C2780312100BE00B1
:100110007708BD00C03020008B00803109302100FD
:100120009D002000931DA7288831002080312800E1
:100130001719A528FF302100CC0003302100C90089
:1001400059302100CB002100CA002000931120006B
:10015000931C922D2000C00A0319C10A401CF328E9
:100160004208F700430880312000A0007708A10072
:1001700021009D1421009D18BA281D102000210E79
:100180000F39A200200EA300F039A204A306A33663
:10019000A20CA336A20C2208A1022308031C230FE1
:1001A000A00221001C082000A400A200A301A501B8
:1001B00021001B082000A200A3012208A504003092
:1001C000A4042508A200A1072408A3000318230FF4
:1001D000A0072108F70020088031C3007708C2007B
:1001E000093021009D00200040080F39031D902D8B
:1001F0004208F700430880312000A0007708A100E2
:100200002030A200A301A401A501210E0F39AB00EB
:10021000200EA600F039AB04A606A636AB0C2B08C0
:10022000A8003F302805AB002036A600A801A8365C
:10023000A60CA836A60C2608A7001F302705A60086
:100240002008A100A800A701F830210203182C29DA
:100250000930210203182E2921004D140230F70025
:10026000200026088F31472781312000A000770821
:10027000A100F93EA10020080318200F8D3EA00028
:10028000A80120002B082802031C68292108F60079
:100290002008F70080308E31EC2681312000AC0040
:1002A000AA007708A700A9000030AC1BFF30AD0002
:1002B000AE002908A2072C0803182C0FA3072E084C
:1002C00003182E0FA4072D0803182D0FA5079E292C
:1002D00020002608A700A70A0230F70027088F3160
:1002E000CA2781312000AA007708A700F93EA7009D
:1002F0002A0803182A0F8D3EAA002708F6002A08AC
:10030000F70080308E31EC2681312000AA00AC004D
:100310007708A900A7000030AA1BFF30AD00AE008F
:100320002708A2072A0803182A0FA3072E08031874
:100330002E0FA4072D0803182D0FA5072000A80ACB
:1003400040302802031C4129220E0F39A100230E40
:10035000A000F039A104A006240EAB00F039A004DF
:10036000AB06250EA600F039AB04A606F030A619A0
:10037000A604A637AB0CA00CA10CA637AB0CA00CA6
:10038000A10C2108A200F7002008A3008131C500BC
:100390007708C40066308F316C2781312000C70098
:1003A0007708C6004408C800460848072100BF0077
:1003B00020004508C9002100C0002000470803189C
:1003C000470A0319E5292100C00721004D1CEB292C
:1003D00022000C14ED2922000C1021004D102200E7
:1003E0000C1CFD290C128C123C302100C500C601EA
:1003F0003C302100C300C401902D6E308F316C273A
:1004000082312000C5007708C400C60005304602CE
:100410000318CE2B21004C13033020004102031D92
:100420000232E8304002031CD32B82316E308F3110
:100430006C2782312000AC007708AD00AE0005309B
:100440002E020318C82B68308F316C2782312000B0
:10045000AC007708AD002100C10A0319C20A2000D0
:100460002E08AF00F70014308F31AC2782317708A7
:100470002000AE002D08AF002F35B0002E07B000D1
:10048000B100310AB2008F316C2782312000B400F4
:100490007708B30002303107B5008F316C27823105
:1004A0002000B6007708B5006D308F316C2782319F
:1004B0002000B8007708B700B9006A308F316C2788
:1004C00082312000B8007708B700340821004202CA
:1004D000031D04322000330821004102031C3C2B81
:1004E000023020003902031CB02A2D18B02A2D1921
:1004F000B02A3908BA00BB01BA0A0319BB0A2D0891
:10050000BA022C08031C2C0FBB02BA1C8C2A033025
:10051000B3070318B40AB02A2000371CA02A2D08FC
:10052000043CBA002C08031C2C0A003CBD00BB0094
:100530003A08BC00B3023D08031C3D0FB402B02AC8
:10054000023020002D07BC00BA00BB01BB0D2C08F7
:10055000BB073C08B3023B08BD00031C3D0FB402BF
:100560002000340833040319C62A03303402031D63
:100570000232E83033020318C62A20003308F6009E
:100580003408F70032088E31392682312000AD1947
:10059000D62A03303107B2008F316C278231200018
:1005A000BA007708B2003A0403191B2B133020005D
:1005B000AE072E088F316C2782312000B2007708F9
:1005C000AE0032083802031D02322E08370203182B
:1005D000042B0230F70020002F088F31AC27823126
:1005E00077082000AE00B10231088F316C278231CC
:1005F0002000B6007708B50001303707AE00AF0124
:10060000AF0D3808AF070F2B2000AE01AF0105304A
:10061000F6000030F7006E308E3139268331FF301E
:100620002000AD00AC002E08F6002F08F7006A305D
:100630008E31392683312000AD0A0319AC0A2D080A
:10064000F6002C08F70068308E31392683312000FF
:1006500035082100BD00200036082100BE00200022
:100660003508F6003608F70064308E3139268331BC
:100670002100C101C201C82B200039080319C82B71
:1006800030088F316C2783312000AC007708AD0033
:100690002100420EF0392000AF002100410E200061
:1006A000AE000F39AF04AE06AE35AF0DAE35AF0DAF
:1006B0002030B000B101B201B701B8012000340808
:1006C0002F02031D023233082E02031C862B20004A
:1006D0003308AE023408031C340FAF023508B900EA
:1006E0003608BA000030BA1BFF30BC00BB00390826
:1006F000B0073A0803183A0FB1073B0803183B0F3D
:10070000B2073C0803183C0FB7079E2B20002D08AA
:10071000B9002C08BA000030BA1BFF30BC00BB0087
:100720003908B0073A0803183A0FB1073B08031815
:100730003B0FB2073C0803183C0FB7072000B80A6C
:1007400040303802031C5E2B300E0F39AD00310EE5
:10075000AC00F039AD04AC06320EAE00F039AC049A
:10076000AE06370EAF00F039AE04AF06F030AF1969
:10077000AF04AF37AE0CAC0CAD0CAF37AE0CAC0C5D
:10078000AD0C2D082100BD0020002C082100BE006A
:10079000833108302000C000C101D32B21004C1749
:1007A0002000C001C10167308F316C2783312000E8
:1007B000C5007708C400450403193F2C21003D08FB
:1007C00021003F022000C60021003E08031C3E0A13
:1007D000210040022000C7000314C71F0310031CA0
:1007E000F62BC609C709C60A0319C70A0314200055
:1007F000C51F0310031C212C4409C8004509C9006A
:10080000C80A0319C90A4908803ECA004708803E41
:100810004A02031D0232460848022000CA01031C96
:100820004A144A08003003190130C800CA004A0CB3
:1008300003181C2C22000C10031C202C22000C146A
:100840003F2C20004708803ECB004508803E4B02ED
:10085000031D0232440846022000C801031C48144C
:100860004808003003190130C600C800480C0318BE
:100870003B2C22000C10031C3F2C22000C14843152
:100880002100440843040319492CFF30C307031C0B
:10089000C4032100460845040319522CFF30C50744
:1008A000031CC6032000A60122000C1E592C2000A8
:1008B000A60A20002608003003190130A800A6006F
:1008C000260C0318652C2100CC13031C692C210075
:1008D000CC172000A60122008C1E702C2000A60A36
:1008E00020002608003003190130A800A600260CBD
:1008F00003187C2C2100CC11031C802C2100CC156A
:1009000022000C1E952C21003E08803E2000A700EE
:1009100021004008803E20002702031D04322100F0
:100920003F0821003D020318AA2C22008C1E082D2E
:1009300021004008803E2000A70021003E08803EA4
:1009400020002702031D043221003D0821003F0240
:10095000031C082D6B308F316C2784312000A800D8
:100960007708A600280EF0392100C4002000260ECA
:100970002100C3000F39C404C306C335C40DC335F9
:10098000C40D430E0F392000A6002100440E2000A4
:10099000A800F039A604A80626082100C3022000FA
:1009A0002808031C280A0319D72C2100C4026C3024
:1009B0008F316C2784312000A8007708A600280E0C
:1009C000F0392100C6002000260E2100C5000F3995
:1009D000C604C506C535C60DC535C60D450E0F394D
:1009E0002000A6002100460E2000A800F039A60431
:1009F000A80626082100C50220002808031C280A92
:100A00000319042D2100C60222000C128C125C2D49
:100A100022000C1A5C2D8C1A5C2D65308F316C27EE
:100A200085312000A8007708A60021003D0720009E
:100A3000A70021003E082000AA0028080318280F5C
:100A4000AA072A08803EA90021004008803E200015
:100A50002902031D043221003F0820002702031849
:100A6000392D210044084304031D5C2D22000C167F
:100A70005C2D2000260821003D022000A600280849
:100A8000031C280A21003E022000A8002100400883
:100A9000803E2000A9002808803E2902031D033261
:100AA000260821003F0203185C2D2100460845045A
:100AB000031D5C2D22008C1685312000991F902D7E
:100AC00022000C1C702D23001D1F702D6130210091
:100AD000C90011302100CA00FF302100CB00792D60
:100AE0000130F60021003F08F700400885319525C8
:100AF00085312000C40123001D1F802D2000C40A61
:100B000020004408003003190130C500C400440C23
:100B100003188C2D23001D13031C902D23001D177B
:100B2000200093106400912808002000A800770896
:100B3000A7007608AA000314A81F0310031CA92D00
:100B400021004C122000A709A809A70A0319A80A26
:100B5000AB2D21004C1620002A08013A031DB42DAC
:100B60002100CC124C15B72D2100CC164C152000BD
:100B70002808803E7D3E031D0232E8302702031C18
:100B8000CF2D20002708A900F7002808AC008D31E0
:100B9000352585312000A8007708A700AA0120008C
:100BA0002808803E803E031D023264302702031C69
:100BB000112E20002708A9002808AC00AD01200054
:100BC0002C08803E803E031D023264302902031C43
:100BD000F02D9C302000A907031CAC03AD0ADF2DCB
:100BE00020002908A7002C08A8002D08A900AC01A6
:100BF0000F302905AD00AE012D08E63EAD000030F6
:100C000003182E0F8F3EAE002D08F6002E08F700B9
:100C100080308F31092786312000A9002100C900CA
:100C2000142EFF302100C90020002808803E803E9D
:100C3000031D02320A3027020318292E20002A0839
:100C4000031D292E210049082000A900FF3A03199D
:100C50005F2E20002708A9002808AC00AD01200065
:100C60002C08803E803E031D02320A302902031CFC
:100C7000402EF6302000A907031CAC03AD0A2F2E2E
:100C800020002908A7002C08A8002D08E63EAD008A
:100C90008F300318013EA9002D08F6002908F7003F
:100CA00080308F31092786312000AC002100CA0036
:100CB00020002A080319622E21004A10622EFF30FC
:100CC0002100CA0020002708AA00E63EA7008F30B6
:100CD0000318013EA8002708F6002808F700803016
:100CE0008F31092786312000AA002100CB0008009F
:100CF0002000D4007708D3007608D500D601D701AC
:100D0000E730D8000330D9006430550203189F2E15
:100D1000143020005502031C932E5508DA00EC30E5
:100D20005A07D500882E20005518172F7030D6008E
:100D3000FE30D700C430D8000930D900172F20006A
:100D40005508DA009C305A07D5000430F7005508E2
:100D50008F31CA2786312000DA007708D5001B3E84
:100D6000D5005A0803185A0F8F3EDA000330D50712
:100D70000318DA0A5508F6005A08F70080308F3158
:100D8000092786312000DB005B08031DD02E703060
:100D9000D600FE30D700C430D8000930D900172F54
:100DA00020005B08013A031DDD2E9C30D600FF3089
:100DB000D7006430D800D901172F20005B08073A0C
:100DC000031DE62E0330D800D901172F20005B0841
:100DD000023A031DEF2E6430D800D901172F2000EE
:100DE0005B08033A031DFD2EE030D600FC30D7002F
:100DF0002030D8000330D900172F20005B08043AB8
:100E0000031D062F0830D800D901172F20005B08DA
:100E1000053A031D0F2F3C30D800D901172F2000B1
:100E20005B08083A031D172F0530D800D9012000B0
:100E30005808F3005908F4005608F5005708F60062
:100E40005308F70054088E31B82687312000D400AB
:100E50007708D300F70054080800AD30F60087305B
:100E6000F70080308E31EC2687312100A100770811
:100E7000A000AF30A2008730A30021002008A4000A
:100E80002108A500FF30A007031CA10325082404A6
:100E90000319AA2F04302207A400A501A50D2308D9
:100EA000A5072408F6002508F70080308E31EC26CF
:100EB00087312100A7007708A6002208F600230842
:100EC000F70080308E31EC2687312100A900A50083
:100ED0007708A400A80002302207A400A501A50DF0
:100EE0002308A5072408F6002508F70080308E3176
:100EF000EC2687312100A500AB007708AA00A400EA
:100F000021002608AA002708AB00FF30A607031C13
:100F1000A7032B082A040319A42F2808F600290880
:100F2000F70080308F31092787312100AA0024087B
:100F30008400250885002A088000A80A0319A90A48
:100F4000A40A0319A50A802F06302100A20703185E
:100F5000A30A3D2F8031432808000C3400340334A9
:100F60000034CC34003401340034FF340734CD3441
:100F7000003401340034F7340734BF340034023411
:100F80000034F9340734C134003402340034FB3403
:100F90000734C334003402340034FD340734C5341C
:100FA000003402340034F0340F34CE3400340134D1
:100FB0000034F1340F34CF34003401340034F234CF
:100FC0000F34D034003401340034F3340F34D134CE
:100FD000003401340034F4340F34D234003401349A
:100FE0000034F5340F34D334003401340034003489
:100FF0000034003400343C3400343C3400340034D9
:1010000020008B1322000D082000DC0021000E08B8
:101010002000DD0022008D01D83021008E0021004B
:1010200052082000DE005E35DF00DE0120008E1F4A
:101030001B282000DE0A20005E08E0005F0421007B
:10104000D2002000DE005E35DF00DE0120000E1E33
:101050002B282000DE0A20005E08E0005F0421004B
:10106000D2002000DE005E35DF00DE0120000E1F12
:101070003B282000DE0A20005E08E0005F0421001B
:10108000D2002000DE005E35DF00DE0120008E1D74
:101090004B282000DE0A20005E08E0005F042100EB
:1010A000D20020005C0822008D0020005D08210095
:1010B0008E0020008B1721005108031DD1030F3033
:1010C00021004E020318202D88308A006B304E0715
:1010D00003188A0A82007A28E528FD281929492957
:1010E000932C482CB82CC62C202D202D7529352A60
:1010F000F12A5D2B210052082000DC00DD01883040
:10110000DC05DD015C08083A031D91285D08003A02
:10111000031D91281B302100D10006302100CE0094
:10112000222D210052080319222D7F308F316C2788
:1011300088312000DD007708DC005D040319222DD2
:101140003330210052052000DC00033A031DAC2897
:1011500001302100CE00222D210052082000DC00A9
:10116000DE0122305C05DF00E0015F08023A031D6A
:10117000C1286008003A031DC12802302100CE00BA
:10118000222D113020005C05DF00E0015F08013AEC
:10119000031DD5286008003A031DD5280D30210015
:1011A000D10003302100CE00222D44302000DC0588
:1011B000DE015C08403A031D222D5E08003A031D43
:1011C000222D07302100CE00222D0030F6006E3097
:1011D000F700003085319525883121004910210024
:1011E000CC164C153330210052052000DC00333A78
:1011F0000319222D2100CE01222D0130F6002100FD
:101200003D08F7003E0885319525893121005208B7
:101210002000DC00DE012230DC05DE015C08223A21
:10122000031D16295E08003A0319222D2100CE0164
:10123000222D6E308F316C2789312000DE00770837
:10124000DC00DF000030F7005F088E31792689313D
:10125000053020005F020318362921005108031DC4
:1012600036291130D10004302100CE00210052086F
:101270002000DC00DE011130DC05DE015C08113AE3
:10128000031D46295E08003A0319222D2100CE01D4
:10129000222D68308F316C2789312000DE007708DD
:1012A000DC000030F6005C08F7005E08853195250B
:1012B000893121005108031D62290D30D10005300C
:1012C0002100CE00210052082000DC00DE01113098
:1012D000DC05DE015C08113A031D72295E08003A44
:1012E0000319222D2100CE01222D21004C16CC16EF
:1012F0004C15053021004F020318CD29210050085C
:10130000133A031D8D29DD302100C9000930210069
:10131000CA0019302100CB002E2A210050082000DD
:10132000DC005C1CB02985302100C900D1302100CF
:10133000CA00210050362000DC00E63EDC008F3081
:101340000318013EDE005C08F6005E08F7008030FE
:101350008F31092789312000DF002100CB002E2AA0
:1013600061302100C90019302100CA002100503627
:101370002000DC00E63EDC008F300318013EDE007A
:101380005C08F6005E08F70080308F31092789314C
:101390002000DF002100CB002E2A0430F7002100BE
:1013A00050088F31472789312000DE007708DC00A4
:1013B0001B3EDC005E0803185E0F8F3EDE005C08FB
:1013C000F6005E08F70080308F3109278931200050
:1013D000DF002100C9000430F700210050088F31E0
:1013E000472789312000DE007708DC001B3EDC0047
:1013F0005E0803185E0F8F3EDE00DC0A0319DE0A6A
:101400005C08F6005E08F70080308F3109278A31CA
:101410002000DF002100CA000430F700210050083E
:101420008F3147278A312000DE007708DC001B3E21
:10143000DC005E0803185E0F8F3EDE000230DC0722
:101440000318DE0A5C08F6005E08F70080308F3172
:1014500009278A312000DF002100CB006E302100F7
:10146000D1000C302100CE00222D21005108031D97
:101470003C2A2100CE01222D210052082000DC0050
:10148000DE0188305C05DF00E0015F08803A031D63
:10149000512A6008003A031D512A07302100CE006E
:1014A000222D223020005C05DF00E0015F08203A99
:1014B000031D772A6008003A031D772A2100D00A0D
:1014C000053021004F0203186C2A1430210050020D
:1014D000031C732AD001732A0B3021005002031C15
:1014E0009A2AD0019A2A0B302100CE00222D1130E9
:1014F00020005C05DF00E0015F08103A031DB72AF9
:101500006008003A031DB72A2100D00305302100EE
:101510004F020318932A143021005002031CB32AEF
:101520001330D000B32A0B3021005002031C9A2A3A
:101530000A30D00021005008043A031DA72A5008A1
:101540002000DF0002305F072100D000B32A210015
:101550005008053A031DB32A50082000DF00FE3072
:101560005F072100D0000B302100CE00222D443037
:101570002000DC05DE015C08403A031D222D5E08D8
:10158000003A031D222D21004F082000DC00F70047
:1015900014308F31AC278A3177082000DC0021001D
:1015A00050082000DE00DC075C088F316C278A3190
:1015B0002100C8007708C70020005C08F600210061
:1015C0004708F7004808863178268A312100C8008C
:1015D0007708C7006E302100D1000D302100CE0009
:1015E000222D053021004F020318102B2100500836
:1015F0002000DC005C1C062B0030F60021004708B0
:10160000F7004808853195258B31562B0130F600BF
:1016100021004708F7004808853195258B31562B66
:101620000430F700210050088F3147278B3120000C
:10163000DE007708DC001B3EDC005E0803185E0F4E
:101640008F3EDE000330DC070318DE0A5C08F6007C
:101650005E08F70080308F3109278B312000DF00D2
:1016600004305F0203183E2B0130F60021004708CA
:10167000F7004808853195258B31562B20005F08EF
:10168000083A031D4D2B0030F700210047082000C9
:10169000DC008E3179268B31562B0030F60021008C
:1016A0004708F7004808853195258B316E302100B9
:1016B000D1000E302100CE00222D21004F08200045
:1016C000DC00F70014308F31AC278B317708200015
:1016D000DC00210050082000DE00DC07210051085A
:1016E000031D752B2100CE01222D21005208200060
:1016F000DE00DF0188305E05E000E1016008803A2D
:10170000031D8A2B6108003A031D8A2B0B30210030
:10171000CE00222D2100D21EA02B2100C70A0319C2
:10172000C80A4808803E7D3E031D0232E930470268
:10173000031CB62B09302100C7070318C80AB62BB3
:101740002100521ED42BFF302100C707031CC80301
:101750004808803E7D3E031D0232E9304702031CEB
:10176000B62BF7302100C707031CC80320005C0814
:10177000F60021004708F7004808863178268B31AB
:101780002100C8007708C7001F3028001D02031C75
:10179000D02B1D082000E000F830600728009D00D5
:1017A0000D302100CE00222D44302000DE05DF0167
:1017B0005E08403A031D442C5F08003A031D442C88
:1017C00021004F08053A031D362C210050080A3A23
:1017D000031D362C0030F6000030F70068308E31E3
:1017E00039268B310030F6000030F7006A308E3138
:1017F00039268B312100C101C20121004808803EF9
:10180000803E031D0232053047020318362C2100AA
:1018100047082000DE00DF00F70014308F31AC27CE
:101820008C3177082000DE008F316C278C3121004D
:10183000BE007708BD003D08F6003E08F7006430A2
:101840008E3139268C3120005E08DF005F0ADE0011
:101850008F316C278C312000DF007708DE005F04B9
:10186000031D362C05302100C700C80121004708A0
:10187000F6004808F70020005C088E3139268C31CC
:101880000B302100CE00222DFA3028009D00222DA1
:1018900021005108031D802C7F308F316C278C3143
:1018A0002000DE007708DC00DF005F08003003194D
:1018B0000130DC00E000E101E01BE1036008F6001C
:1018C0006108F7007F308E3139268C3120005F08A7
:1018D0000319732C22000C100C128C122800171103
:1018E000200093107D2C3C302100C500C6013C3007
:1018F0002100C300C401280017152100CE01222DAC
:10190000210052082000DC00DF018830DC05DF0107
:101910005C08883A031D902C5F08003A0319222DB9
:101920002100CE01222D0030F60021004108F700F1
:101930004208853195258C3121005108031DA52CC5
:101940000D30D10003302100CE00210052082000CC
:10195000DC00DF011130DC05DF015C08113A031DFA
:10196000B52C5F08003A0319222D2100CE01222D4B
:101970000130F70021004F088E3179268C316E300E
:101980002100D10008302100CE00222D2100510875
:101990000319DB2C210052082000DC00DF01883015
:1019A0005C05E000E1016008803A031DDE2C61085F
:1019B000003A031DDE2C2100CE01222D2230200012
:1019C0005C05E000E1016008203A031DF52C610888
:1019D000003A031DF52C2100CF0A06304F020318F0
:1019E000CF0107302100CE00222D113020005C05F0
:1019F000E000E1016008103A031D0E2D6108003A75
:101A0000031D0E2D2100CF0306304F02031C0A2DAB
:101A10000530CF0007302100CE00222D44302000B9
:101A2000DC05DF015C08403A031D222D5F08003A07
:101A3000031D222D2100D0010B302100CE00222DCC
:101A40002100CE012000DC0121004E08031D2A2DBB
:101A50002000DC0A20005C0C0318302D20009913B4
:101A6000031C342D2000991708002000A0007708DF
:101A7000A1002036A200210CA3002036A400210CD6
:101A8000A500A436A50C2508A30724080318240FD5
:101A9000A207230E0F39A500220EA400F039A504D9
:101AA000A40625082307A50022080318220FA4076F
:101AB000A2012408A3002507A30024080318240F6B
:101AC000A2072236A400230CA500A436A50CA43638
:101AD000A50C2535A300240DA200A335A20DA33526
:101AE000A20D2535AB00240DA6002B08A307260860
:101AF0000318260FA2072308A1022208031C220FA5
:101B0000A0020630A1070318A00A210E0F39A30076
:101B1000200EA200F039A304A20623082507A10085
:101B20002408A00022080318220FA0072108F700AC
:101B3000200808002100AD0077082100B000210036
:101B4000AC007608AF0075082100B2002100AE009D
:101B50002D082100B10021002F082100B300210031
:101B600030082100AC00210032082100AD00F70050
:101B70002C088F3147278D312100AD007708AC004C
:101B80002100B40021002D082100B5002100AC0087
:101B9000210030082100AD00210033082100AE00F3
:101BA000F7002D088F3147278D3177082100AD00D0
:101BB000210031082100AE00210032082100AF00D1
:101BC000F7002E088F3147278D3177082100AE00AE
:101BD000AD072D08AC072C082100B5003408210002
:101BE000AC00210035082100AD002C08F7002D08BD
:101BF000080000340034D534FD34C134FE34593487
:101C0000FF34CF34FF343034003486340034D334DE
:101C100000341A3401345C3401349C340134DA3435
:101C2000013416340234513402348C340234C73453
:101C30000234023403343F3403347D340334BD347E
:101C40000334013404344834043494340434E53423
:101C500004343F340534A4340534173406349E3438
:101C60000634443407341E3408345D340934AB344C
:101C70000B342000A6007708A8007608A7002608E5
:101C80008F316C278E312000AA007708A900270623
:101C9000031D4E2E2A0828060319782E2000260838
:101CA000A9002935A6002000260823009100200065
:101CB00027082300930015139513151520008B1387
:101CC000553023009600AA309600951420008B17FB
:101CD00023001511230095186A2E200012122000EF
:101CE0002808A700A8012608A900A60A291C532E27
:101CF00008002000CD007708CC0021004C16CC163F
:101D00004C15CC14053020004D020318A02E1930BC
:101D10002100C900DD302100CA0020004D08E63E48
:101D2000CD008F300318013ECF004D08F6004F085C
:101D3000F70080308F3109278E312100CB00B72E7C
:101D400020004C080319AE2E61302100C900093073
:101D50002100CA00C9302100CB00B72EC9302100B4
:101D6000C900D1302100CA00FF302100CB0008009B
:101D70002000CD007708CC007608CF007508CE0093
:101D80007408D1007308D0005108803ED2004D087D
:101D9000803E5202031D02324C0850020318D52E19
:101DA00020004E08F7004F08EB2E20004D08803E23
:101DB000D2004F08803E5202031D02324E084C02F0
:101DC0000318E72E20005008F7005108EB2E2000E2
:101DD0004C08F7004D080800003A0319F42E803A29
:101DE0000319FC2EF701003476088400770885007B
:101DF0001200F700000808008F311627F500F60FD3
:101E0000F703F70A8F311627F4007508F7007408F6
:101E10000800003A0319102F803A0319162F0034D6
:101E200076088400770885000008080077088A0093
:101E300076088200080061341934FF340034D1344C
:101E4000A134FF340234C934CD34FF340134613459
:101E50001134FF3403346134C934FF34043485341D
:101E6000D134FF340934DD34093419340634CD3427
:101E70008534FF340534D1348534FF340534DD3402
:101E80001934FF340734DD34D534FF3408342100ED
:101E9000B6007708B700B801B901BA0108302100CF
:101EA0003A020318672FB835B90DB61F602F0030FE
:101EB000BC003708BB00B8073C0803183C0FB90743
:101EC00021003608BB003B35B600BA0A4E2F210070
:101ED0003808F700390808002000A300A000A1017D
:101EE000A2012335A0002000200823009100151333
:101EF0009513151413082000A500A300A4012208BF
:101F0000A100A300A4012508A2002008A300A00AA4
:101F1000231C732F2108F700220808002000EB0083
:101F20007708EC006B08ED00EB00EE016C08ED00AB
:101F3000EF01ED1BEF036D08F5006F08F6006B086D
:101F4000F7006E088D319A258F312000EC0077085C
:101F5000EB00F7006C0808002000E400E2007708BE
:101F6000E300E501E41BE5036308E200E601E21B90
:101F7000E6036208F5006608F6006408F7006508E5
:101F80008D319A258F312000E3007708E200F700B9
:101F9000630808002000E7007708E8006708E90008
:101FA000E700EA01E71BEA036808E900F5000030F2
:101FB000F6006708F7006A088D319A258F312000F6
:101FC000E8007708E700F700680808000334B73432
:101FD0000D342534B1346134413437340134213483
:0C1FE000003400340034003400340034BD
:020000040001F9
:02000E00D40F0D
:02001000FF3AB5
:00000001FF
