:020000040000FA
:1000000000008731052FFF348A012000911C42280F
:1000100022000D082000BF003F35C0004008031D2E
:1000200013281030C00021008E0122008D01200015
:100030004008103A031929284008203A03192E28AD
:100040004008403A031933284008803A03193828F9
:100050003C282100470822008E003C282100480847
:1000600022008E003C282100490822008E003C28F6
:1000700021004A0822008E002000400822008D0046
:1000800020009110090020008B1322000D08200091
:10009000DD0021000E082000DE0022008D01D83096
:1000A00021008E00210050082000DF005F35E000B5
:1000B000DF0120008E1F5E282000DF0A20005F087D
:1000C000E10060042100D0002000DF005F35E00087
:1000D000DF0120000E1E6E282000DF0A20005F08CE
:1000E000E10060042100D0002000DF005F35E00067
:1000F000DF0120000E1F7E282000DF0A20005F089D
:10010000E10060042100D0002000DF005F35E00046
:10011000DF0120008E1D8E282000DF0A20005F08EE
:10012000E10060042100D00020005D0822008D0065
:1001300020005E0821008E0020008B1721004F0850
:10014000031DCF030F3021004C020318562D8030C1
:100150008A00AE304C0703188A0A8200BD2828297D
:10016000402963299329C22C772CEE2CFC2C562D88
:10017000562DBF295A2A232B902B210050082000EE
:10018000DD00DE018830DD05DE015D08083A031D73
:10019000D4285E08003A031DD4281B302100CF006C
:1001A00006302100CC00582D210050080319582D8D
:1001B0007F308E31C72680312000DE007708DD00D9
:1001C0005E040319582D3330210050052000DD0056
:1001D000033A031DEF2801302100CC00582D2100E7
:1001E00050082000DD00DF0122305D05E000E10164
:1001F0006008023A031D04296108003A031D04291E
:1002000002302100CC00582D113020005D05E000A7
:10021000E1016008013A031D18296108003A031D35
:1002200018290D302100CF0003302100CC00582DBB
:1002300044302000DD05DF015D08403A031D582DE4
:100240005F08003A031D582D07302100CC00582DBF
:100250000030F6006D30F700003085316B258131BC
:10026000210047102100CA164A15333021005005DD
:100270002000DD00333A0319582D2100CC01582D00
:1002800072308E31C72681312000DF007708DD0013
:100290000130F6005D08F7005F0885316B2581317C
:1002A000210050082000DD00DF012230DD05DF01E4
:1002B0005D08223A031D60295F08003A0319582D92
:1002C0002100CC01582D7B308E31C7268131200092
:1002D000DF007708DD00E0000030F70060088E31B5
:1002E0002526813106302000600203188029210074
:1002F0004F08031D80291130CF0004302100CC00AD
:10030000210050082000DD00DF011130DD05DF0194
:100310005D08113A031D90295F08003A0319582D12
:100320002100CC01582D76308E31C7268131200036
:10033000DF007708DD000030F6005D08F7005F0899
:1003400085316B25813121004F08031DAC290D300B
:10035000CF0005302100CC00210050082000DD0036
:10036000DF011130DD05DF015D08113A031DBC29F5
:100370005F08003A0319582D2100CC01582D2100A7
:100380004A16CA164A15063021004D020318F229F2
:1003900021004E082000DD005D1CD529853021009C
:1003A000C700D1302100C800DB2961302100C7001F
:1003B00019302100C80021004E362000DD00EB3E40
:1003C000DD0087300318013EDF005D08F6005F089E
:1003D000F70080308E31B52681312000E000210009
:1003E000C900532A0430F70021004E088F31172727
:1003F00081312000DF007708DD00EF3EDD005F087F
:1004000003185F0F8E3EDF005D08F6005F08F700FF
:1004100080308E31B52682312000E0002100C700F7
:100420000430F70021004E088F3117278231200059
:10043000DF007708DD00EF3EDD005F0803185F0F87
:100440008E3EDF00DD0A0319DF0A5D08F6005F0853
:10045000F70080308E31B52682312000E000210087
:10046000C8000430F70021004E088F311727823171
:100470002000DF007708DD00EF3EDD005F08031895
:100480005F0F8E3EDF000230DD070318DF0A5D08D4
:10049000F6005F08F70080308E31B52682312000EB
:1004A000E0002100C9006E302100CF000C30210097
:1004B000CC00582D21004F08031D612A2100CC01DA
:1004C000582D210050082000DD00DF0188305D0537
:1004D000E000E1016008803A031D762A6108003AD5
:1004E000031D762A07302100CC00582D2230200031
:1004F0005D05E000E1016008203A031D9C2A6108C7
:10050000003A031D9C2A2100CE0A063021004D022C
:100510000318912A133021004E02031C982ACE01A1
:10052000982A0A3021004E02031CBF2ACE01BF2A9E
:100530000B302100CC00582D113020005D05E0006B
:10054000E1016008103A031DE92A6108003A031D21
:10055000E92A2100CE03063021004D020318B82AF3
:10056000133021004E02031CE52A1230CE00E52A8A
:100570000A3021004E02031CBF2A0930CE007B3016
:100580008E31C72682312000E1007708E000E200CA
:1005900006306202031CE52A21004E08043A031DBE
:1005A000D92A4E082000E000023060072100CE006A
:1005B000E52A21004E08053A031DE52A4E082000D1
:1005C000E000FE3060072100CE000B302100CC009F
:1005D000582D44302000DD05DF015D08403A031D41
:1005E000582D5F08003A031D582D21004D082000AA
:1005F000DD00F70013308F315A2782317708200051
:10060000DD0021004E082000DF00DD075D088E318F
:10061000C72683312100C6007708C50020005D0889
:10062000F60021004508F700460886315026833140
:100630002100C6007708C5006E302100CF000D30C4
:100640002100CC00582D063021004D020318422B0A
:1006500021004E082000DD005D1C382B0030F60024
:1006600021004508F700460885316B258331892B29
:100670000130F60021004508F700460885316B255A
:100680008331892B0430F70021004E088F31172762
:1006900083312000DF007708DD00EF3EDD005F08DA
:1006A00003185F0F8E3EDF000330DD070318DF0AFB
:1006B0005D08F6005F08F70080308E31B526833183
:1006C0002000E000043060020318702B0130F600B7
:1006D00021004508F700460885316B258331892BB9
:1006E00020006008063A031D802B210045082000E9
:1006F000DD000030F7005D088E3125268331892B1F
:100700000030F60021004508F700460885316B25CA
:1007100083316E302100CF000E302100CC00582DE7
:1007200021004D082000DD00F70013308F315A27DB
:10073000833177082000DD0021004E082000DF0013
:10074000DD0721004F08031DA82B2100CC01582DE7
:10075000210050082000DF00E00188305F05E10043
:10076000E2016108803A031DBD2B6208003A031DB7
:10077000BD2B0B302100CC00582D2100D01ED32BD7
:100780002100C50A0319C60A4608803E7D3E031DA6
:100790000232E9304502031CE92B09302100C5076C
:1007A0000318C60AE92B2100501E072CFF30210038
:1007B000C507031CC6034608803E7D3E031D02326A
:1007C000E9304502031CE92BF7302100C507031C63
:1007D000C60320005D08F60021004508F700460822
:1007E0008631502683312100C6007708C5001F30AE
:1007F00028001D02031C032C1D082000E100F83016
:10080000610728009D000D302100CC00582D443098
:100810002000DF05E0015F08403A031D732C6008EB
:10082000003A031D732C21004D08063A031D652C68
:1008300021004E08093A031D652C0030F6000030F7
:10084000F70076308D31E52584310030F600003038
:10085000F70077308D31E525843121004608803E50
:10086000803E031D0232063045020318652C21002C
:1008700045082000DF00E000F70013308F315A27D1
:10088000843177082000DF008E31C72684312000B4
:10089000E1007708E000F6006108F70072308D3162
:1008A000E525843120005F08E000600ADF008E311A
:1008B000C72684312000E0007708DF006004031DB4
:1008C000652C06302100C500C60121004508F60050
:1008D0004608F70020005D088D31E52584310B3096
:1008E0002100CC00582DFA3028009D00582D210001
:1008F0004F08031DAF2C7F308E31C7268431200076
:10090000DF007708DD00E0006008003003190130E7
:10091000DD00E100E201E11BE2036108F60062088C
:10092000F7007F308D31E525843120006008031900
:10093000A22C22000C100C128C122800171120007F
:100940009310AC2C3C302100C300C4013C3021008A
:10095000C100C201280017152100CC01582D21002B
:1009600050082000DD00E0018830DD05E0015D0871
:10097000883A031DBF2C6008003A0319582D210046
:10098000CC01582D77308E31C72684312000E0000D
:100990007708DD000030F6005D08F700600885315B
:1009A0006B25843121004F08031DDB2C0D30CF0057
:1009B00003302100CC00210050082000DD00E001C0
:1009C0001130DD05E0015D08113A031DEB2C6008D4
:1009D000003A0319582D2100CC01582D0130F700A1
:1009E00021004D088E31252684316E302100CF0044
:1009F00008302100CC00582D21004F080319112D7B
:100A0000210050082000DD00E00188305D05E10094
:100A1000E2016108803A031D142D6208003A031DAB
:100A2000142D2100CC01582D223020005D05E1005D
:100A3000E2016108203A031D2B2D6208003A031DD4
:100A40002B2D2100CD0A07304D020318CD010730B0
:100A50002100CC00582D113020005D05E100E2019D
:100A60006108103A031D442D6208003A031D442D0D
:100A70002100CD0307304D02031C402D0630CD0070
:100A800007302100CC00582D44302000DD05E00166
:100A90005D08403A031D582D6008003A031D582D8B
:100AA0002100CE010B302100CC00582D2100CC01BB
:100AB0002000DD0121004C08031D602D2000DD0A0F
:100AC00020005D0C0318662D20009913031C6A2D6D
:100AD0002000991708002000A9007708A8007608D0
:100AE000AB000314A91F0310031C7F2D21004A1221
:100AF0002000A809A909A80A0319A90A812D210023
:100B00004A1620002B08013A031D8A2D2100CA1223
:100B10004A158D2D2100CA164A1520002908803E4D
:100B20007D3E031D0232E8302802031CA72D200061
:100B30002808AA002908AC002A08F7002C088731E9
:100B4000852785312000A9007708A800AB01200087
:100B50002908803E803E031D023264302802031CB7
:100B6000E92D20002808AA002908AC00AD012000CA
:100B70002C08803E803E031D023264302A02031C92
:100B8000C82D9C302000AA07031CAC03AD0AB72D6A
:100B900020002A08A8002C08A9002D08AA00AC01F2
:100BA0000F302A05AD00AE012D08EB3EAD002E083A
:100BB00003182E0F873EAE002D08F6002E08F70012
:100BC00080308E31B52685312000AA002100C70073
:100BD000EC2DFF302100C70020002908803E803E18
:100BE000031D02320A3028020318012E20002B08B0
:100BF000031D012E210047082000AA00FF3A031917
:100C0000372E20002808AA002908AC00AD012000DA
:100C10002C08803E803E031D02320A302A02031C4B
:100C2000182EF6302000AA07031CAC03AD0A072ECD
:100C300020002A08A8002C08A9002D08EB3EAD00D2
:100C400087300318013EAA002D08F6002A08F70095
:100C500080308E31B52686312000AC002100C800DE
:100C600020002B0803193A2E210048103A2EFF309D
:100C70002100C80020002808AB00EB3EA800873008
:100C80000318013EA9002808F6002908F700803063
:100C90008E31B52686312000AB002100C900080046
:100CA0002000D5007708D4007608D600D701D801F7
:100CB000E730D9000330DA00723056020318772E7D
:100CC000133020005602031C6B2E5608DB00ED305B
:100CD0005B07D600602E20005618EF2E7030D7002C
:100CE000FE30D800C430D9000930DA00EF2E2000E1
:100CF0005608DB008E305B07D6000430F70056083C
:100D00008F31782786312000DB007708D600EF3E50
:100D1000D6005B0803185B0F8E3EDB000330D6075E
:100D20000318DB0A5608F6005B08F70080308E31A6
:100D3000B52686312000DC005C08031DA82E70302B
:100D4000D700FE30D800C430D9000930DA00EF2EC9
:100D500020005C08013A031DB52E9C30D700FF30FF
:100D6000D8006430D900DA01EF2E20005C08083A80
:100D7000031DBE2E0130D900DA01EF2E20005C08E1
:100D8000023A031DC72E6430D900DA01EF2E20008D
:100D90005C08033A031DD52EE030D700FC30D800A4
:100DA0002030D9000330DA00EF2E20005C08043A2E
:100DB000031DDE2E0830D900DA01EF2E20005C087A
:100DC000053A031DE72E3C30D900DA01EF2E200052
:100DD0005C08063A031DEF2E0630D900DA01200028
:100DE0005908F3005A08F4005708F5005808F600AF
:100DF0005408F70055088E31642686312000D5004E
:100E00007708D400F700550808006130F6008D30EF
:100E1000F70080308E31982687312000E400770873
:100E2000E3006330E5008D30E60020006308E70052
:100E30006408E800FF30E307031CE4036808670464
:100E40000319822F04306507E700E801E80D660802
:100E5000E8076708F6006808F70080308E319826AA
:100E600087312000EA007708E9006508F600660887
:100E7000F70080308E31982687312000EC00E800A2
:100E80007708E700EB0002306507E700E801E80DAE
:100E90006608E8076708F6006808F70080308E31BA
:100EA000982687312000E800EE007708ED00E70083
:100EB00020006908ED006A08EE00FF30E907031C16
:100EC000EA036E086D0403197C2F6B08F6006C08AA
:100ED000F70080308E31B52687312000ED0067089D
:100EE0008400680885006D088000EB0A0319EC0A8D
:100EF000E70A0319E80A582F06302000E50703180F
:100F0000E60A152F8831002808002000A000770885
:100F1000A1002036A200210CA3002036A400210C41
:100F2000A600A436A60C2608A30724080318240F3D
:100F3000A207230E0F39A600220EA400F039A60442
:100F4000A40626082307A60022080318220FA407D8
:100F50002408A300A20123082607A30024080318DD
:100F6000240FA2072236A400230CA600A436A60C48
:100F7000A436A60C2635A300240DA200A335A20D8D
:100F8000A335A20D2635A500240DA7002508A3072B
:100F900027080318270FA2072308A1022208031C11
:100FA000220FA0020630A1070318A00A210E0F3954
:100FB000A300200EA200F039A304A20623082607EE
:100FC000A1002408A00022080318220FA00721086E
:100FD000F700200808000334B7340D342534B13449
:100FE00061344134373401342134003400343C342A
:100FF00000343C3400340034003400340034003415
:101000002000C101C201C3018030C40088316A30B0
:10101000210099000E308C0022008C0121008D01EE
:1010200022008D0121008E01043023008C0021005C
:101030001E169E1723008E01053020009C00FA30FA
:101040009B00210091147230280097007F308E3170
:10105000C72688312000A7007708A900A800280C1F
:101060000318342828001711031C382828001715E6
:10107000FA302800960037309E00FA309D00C030CC
:1010800020008B008831093021009D002000931D35
:101090005C28803143208831280017195A28FF30F6
:1010A0002100CA0003302100C70059302100C900C7
:1010B0002100C800200093112000931CFF2C200069
:1010C000C10A0319C20A411CAB284308F7004408AF
:1010D00088312000A0007708A10021009D14210084
:1010E0009D186F281D102000210E0F39A200200E20
:1010F000A300F039A204A306A336A20CA336A20CC7
:101100002208A1022308031C230FA00221001C08AF
:101110002000A200A3012208A400A60121001B08B0
:101120002000A200A3012208A6042308A404260884
:10113000A2002408A3002208A10723080318230FF4
:10114000A0072108F70020088831C4007708C300F1
:10115000093021009D00200041080F39031DFD2C9E
:101160004308F700440888312000A0007708A10058
:101170002030A200A301A401A601210E0F39A50071
:10118000200EA700F039A504A706A736A50C250850
:10119000A9003F302905A5002036A700A901A936DE
:1011A000A70CA936A70C2708A8001F302805A70000
:1011B0002008A900A8012908A100F830210203187D
:1011C000E528093021020318E72821004B140230DA
:1011D000F700200027088F31172788312000A00052
:1011E0007708A100A53EA10020080318200F8D3E1E
:1011F000A000A901200025082902031C222921089A
:10120000F6002008F70080308E31982689312000C2
:10121000AB007708A800AA002B08AC000030AC1B7C
:10122000FF30AD00AE002A08A2072C0803182C0FCF
:10123000A3072E0803182E0FA4072D0803182D0F3F
:10124000A607592920002708A800A80A0230F7009D
:1012500028088F31782789312000AB007708A80053
:10126000A53EA8002B0803182B0F8D3EAB002808C5
:10127000F6002B08F70080308E3198268931200047
:10128000AC007708AA00A8002C08AB000030AB1B0C
:10129000FF30AD00AE002808A2072B0803182B0F63
:1012A000A3072E0803182E0FA4072D0803182D0FCF
:1012B000A6072000A90A40302902031CFA28220EA2
:1012C0000F39A100230EA000F039A104A006240EBE
:1012D000A500F039A004A506260EA700F039A50444
:1012E000A706F030A719A704A737A50CA00CA10CDE
:1012F000A737A50CA00CA10C2108A2002008A30070
:101300002208F70023088931C6007708C500743029
:101310008E31C72689312000C8007708C7004508EC
:10132000C9004608CA00470849072100BF0020003D
:101330004A082100C000200048080318480A031981
:10134000A3292100C00721004B1CA92922000C144D
:10135000AB2922000C1021004B1022000C1CCA29C2
:101360002000991FBE2911302100C700CB30210079
:10137000C800FF302100C9002100CA0022000C1261
:101380008C123C302100C300C4013C302100C1005C
:10139000C201FD2C7B308E31C72689312000C6006A
:1013A0007708C500C7000630470203180B2B210041
:1013B0004A13EA3020004202031D0232603041022B
:1013C000031C102B89317B308E31C72689312000D8
:1013D000AC007708AD00AE0006302E020318062BD5
:1013E00076308E31C72689312000AC007708AD00F9
:1013F000AF0077308E31C72689312000AC007708E6
:10140000AD00AD0A0319AC0A09302F02031C0A2AE9
:101410000830AF0020002E08B000F70013308F31E5
:101420005A278A3177082000AE002F08B0003035E7
:10143000B100AE072E08B000300AB1008E31C726C9
:101440008A312000B2007708B10002303007B300C3
:101450008E31C7268A312000B4007708B3003208E5
:101460002C02031D023231082D02031C692A2000C0
:101470003308F6003408F70072308D31E5258A31E3
:1014800020002F08083A0319522A0330B007300809
:101490008E31C7268A312000B5007708B0003504A8
:1014A000031D5B2A0630F6000030F7007B308D31DB
:1014B000E5258A31062B2000AD01AC01AF0AB00151
:1014C0002F08F6003008F70076308D31E5258A3197
:1014D000FD2A7A308E31C7268A312000B000770885
:1014E000AF0030040319FD2A2E088E31C7268A3139
:1014F0002000AF007708AE002C0EF039B5002D0E9D
:10150000B0000F39B504B006B035B50DB035B50D26
:101510002030B600B701B801B901BA012000320885
:101520003502031D023231083002031CB62A2000A6
:101530003108B0023208031C320FB5023308BB0079
:101540003408BC000030BC1BFF30BE00BD003B08AF
:10155000B6073C0803183C0FB7073D0803183D0FBA
:10156000B8073E0803183E0FB907CE2A20002E0800
:10157000BB002F08BC000030BC1BFF30BE00BD000C
:101580003B08B6073C0803183C0FB7073D08031893
:101590003D0FB8073E0803183E0FB9072000BA0AEE
:1015A00040303A02031C8E2A360E0F39AE00370E39
:1015B000AF00F039AE04AF06380EB000F039AF041A
:1015C000B006390EB100F039B004B106F030B119EF
:1015D000B104B137B00CAF0CAE0CB137B00CAF0CDE
:1015E000AE0C2E08B6002F08B7003608F6003708F4
:1015F000F70072308D31E5258A3120002D08F60084
:101600002C08F70077308D31E5258B318B312000A8
:10161000C101C201102B21004A172000C101C201E3
:1016200075308E31C7268B312000C6007708C50083
:1016300046040319862B72308E31C7268B31200069
:10164000C8007708C70021003F082000C90021001A
:1016500040082000CA0047084902C7004808031C88
:10166000480A4A02C8000314C81F0310031C3D2B7C
:10167000C709C809C70A0319C80A03142000C61FEE
:101680000310031C682B4509C9004609CA00C90A92
:101690000319CA0A4A08803ECB004808803E4B0224
:1016A000031D0232470849022000CB01031C4B14E2
:1016B0004B08003003190130C900CB004B0C031854
:1016C000632B22000C10031C672B22000C14862BAA
:1016D00020004808803ECC004608803E4C02031D96
:1016E0000232450847022000C901031C4914490879
:1016F000003003190130C700C900490C0318822BC0
:1017000022000C10031C862B22000C148B3172302B
:101710008E31C7268B312000A7007708A900210051
:10172000420841040319982BFF30C107031CC20370
:101730002100440843040319A12BFF30C307031CF5
:10174000C4032000A80122000C1EA82B2000A80A18
:1017500020002808003003190130AB00A800280C35
:101760000318B42B2100CA13031CB82B2100CA177D
:101770002000A80122008C1EBF2B2000A80A2000F8
:101780002808003003190130AB00A800280C03180A
:10179000CB2B2100CA11031CCF2B2100CA1522001C
:1017A0000C1EE32B20002708803EAA0021004008E1
:1017B000803E20002A02031D043221003F08200041
:1017C00029020318F52B22008C1E532C21004008FF
:1017D000803E2000AA002708803E2A02031D033213
:1017E000290821003F02031C532C78308E31C72674
:1017F0008B312000AB007708A8002B0EF0392100B8
:10180000C2002000280E2100C1000F39C204C10609
:10181000C135C20DC135C20D410E0F392000A800DF
:101820002100420E2000AB00F039A804AB062808C6
:101830002100C10220002B08031C2B0A0319222CB3
:101840002100C20279308E31C7268C312000AB00D6
:101850007708A8002B0EF0392100C4002000280EC4
:101860002100C3000F39C404C306C335C40DC335FA
:10187000C40D430E0F392000A8002100440E2000A3
:10188000AB00F039A804AB0628082100C3022000F1
:101890002B08031C2B0A03194F2C2100C402220021
:1018A0000C128C12C92C22000C1AC92C8C1AC92CAF
:1018B00073308E31C7268C312000AB007708A8002A
:1018C0002907AA002708AC002B0803182B0FAC0728
:1018D0002C08803EAD0021004008803E20002D02F3
:1018E000031D043221003F0820002A020318962C11
:1018F0002100420841040319932C2000AA01210071
:10190000CA1F842C2000AA0A210041082000AC0034
:10191000AA062A0C03188E2C2100CA13031C922C31
:101920002100CA17C92C22000C16C92C2000280837
:10193000A9022B08031C2B0FA70221004008803EA0
:101940002000AD002708803E2D02031D0332290828
:1019500021003F020318C92C210044084304031945
:10196000C72C2000A9012100CA1DB82C2000A90AFB
:10197000210043082000A700A906290C0318C22C47
:101980002100CA11031CC62C2100CA15C92C220033
:101990008C168C312000991FFD2C22000C1CDD2C94
:1019A00023001D1FDD2C61302100C70011302100F4
:1019B000C800FF302100C900E62C0130F6002100EC
:1019C0003F08F700400885316B258C312000C501A8
:1019D00023001D1FED2C2000C50A20004508003003
:1019E00003190130C600C500450C0318F92C23006B
:1019F0001D13031CFD2C23001D17200093106400F1
:101A0000462808002100AF0077082100B20021001D
:101A1000AE007608B10075082100B4002100B000C6
:101A20002F082100B300210031082100B50021005A
:101A300032082100AE00210034082100AF00F70079
:101A40002E088F3117278D312100AF007708AE00A7
:101A50002100B60021002F082100B7002100AE00B0
:101A6000210032082100AF00210035082100B0001C
:101A7000F7002F088F3117278D3177082100AF002D
:101A8000210033082100B000210034082100B100FA
:101A9000F70030088F3117278D3177082100B0000B
:101AA000AF072F08AE072E082100B7003608210027
:101AB000AE00210037082100AF002E08F7002F08E4
:101AC00008000B34003403340034CA3400340134C9
:101AD0000034FB340734CB34003401340034F534A3
:101AE0000734BF34003402340034F7340734C134CF
:101AF000003402340034F9340734C334003402347F
:101B00000034FC340734CC34003401340034FD3468
:101B10000734CD34003401340034FE340734CE347D
:101B2000003401340034FF340734CF34003401343E
:101B3000003494340F34D0340034013400349534FC
:101B40000F34D13400340134003400340034D5343F
:101B5000FD34C134FE345934FF34CF34FF343034D3
:101B6000003486340034D33400341A3401345C3405
:101B700001349C340134DA340134163402345134E3
:101B800002348C340234C7340234023403343F3418
:101B900003347D340334BD34033401340434483415
:101BA000043494340434E53404343F340534A43428
:101BB0000534173406349E340634443407341E3456
:101BC00008345D340934AB340B342000A7007708A7
:101BD000A9007608A80027088E31C7268D3120007D
:101BE000AB007708AA002806031DFA2D2B0829064A
:101BF0000319242E20002708AA002A35A700200058
:101C000027082300910020002808230093001513C3
:101C10009513151520008B13553023009600AA301C
:101C20009600951420008B1723001511230095189A
:101C3000162E2000121220002908A800A90127084A
:101C4000AA00A70A2A1CFF2D08002000CE00770852
:101C5000CD0021004A16CA164A15CA1406302000C3
:101C60004E0203184C2E19302100C700DD30210030
:101C7000C80020004E08EB3ECE0087300318013E1E
:101C8000D0004E08F6005008F70080308E31B5269F
:101C90008E312100C900632E20004D0803195A2EF1
:101CA00061302100C70009302100C800C93021007F
:101CB000C900632EC9302100C700D1302100C800FF
:101CC000FF302100C90008002000CE007708CD00B9
:101CD0007608D0007508CF007408D2007308D100D0
:101CE0005208803ED3004E08803E5302031D02324C
:101CF0004D0851020318812E20004F08F7005008AC
:101D0000972E20004E08803ED3005008803E53029C
:101D1000031D02324F084D020318932E2000510874
:101D2000F7005208972E20004D08F7004E080800D3
:101D3000003A0319A02E803A0319A82EF7010034A7
:101D400076088400770885001200F7000008080074
:101D50008E31C226F500F60FF703F70A8E31C22640
:101D6000F4007508F70074080800003A0319BC2E47
:101D7000803A0319C22E0034760884007708850063
:101D80000008080077088A00760882000800200012
:101D9000A000A101A2012008A3002335A00020007B
:101DA0002008230091001513951315141308200023
:101DB000A300A4012308A600A5012208A300A401F2
:101DC00023082504A10024082604A2002008A3005B
:101DD000A00A231CCF2E2108F70022080800613436
:101DE0001934FF340034D134A134FF340234C934FF
:101DF000CD34FF34013461341134FF3403346134A1
:101E0000C934FF3404348534D134FF340734CD343D
:101E10008534FF340534D1348534FF340534DD3462
:101E20001934FF340834DD34D534FF34063421004E
:101E3000B8007708B900BA01BB01BC010830210025
:101E40003C020318372FBA35BB0DB81F302F0030B6
:101E5000BE003908BD00BA073E0803183E0FBB0795
:101E600021003808BD003D35B800BC0A1E2F2100F6
:101E70003A08F7003B0808002100A9007708AA00EB
:101E80002908AB00A900AC012A08AB00AD01AB1BCF
:101E9000AD032B08F5002D08F6002908F7002C08E3
:101EA0008D3102258F312100AA007708A900F700A3
:101EB0002A0808002100A200A0007708A100A301C1
:101EC000A21BA3032108A000A401A01BA4032008B7
:101ED000F5002408F6002208F70023088D310225BA
:101EE0008F312100A1007708A000F7002108080029
:101EF0002100A5007708A6002508A700A500A801D5
:101F0000A51BA8032608A700F5000030F600250849
:101F1000F70028088D3102258F312100A6007708AF
:0C1F2000A500F70026080800003400347B
:020000040001F9
:02000E00D40F0D
:02001000FF3AB5
:00000001FF
